:100000000C9434000C9451000C9451000C94510049
:100010000C9451000C9451000C9451000C9451001C
:100020000C9451000C9451000C9451000C9451000C
:100030000C9451000C9451000C9451000C945100FC
:100040000C9451000C9451000C9451000C945100EC
:100050000C9451000C9451000C9451000C945100DC
:100060000C9451000C94510011241FBECFEFD8E026
:10007000DEBFCDBF15E0A0E0B1E0E6E2F4E002C0F3
:1000800005900D92A630B107D9F725E0A6E0B5E0BE
:1000900001C01D92A638B207E1F70E9466010C94D8
:1000A00011020C94000080E08BB9E9EFF0E0319789
:1000B000F1F700C000008F5F8F3FB1F708952F92D6
:1000C0003F924F925F926F927F928F929F92AF92E8
:1000D000BF92CF92DF92EF92FF920F931F93CF9335
:1000E000DF93CDB7DEB728970FB6F894DEBF0FBE0B
:1000F000CDBF5B016230710508F4CFC0769567957E
:100100007C0156E0852E55E0952EFC01AC01940152
:1001100018861F824080518062807380DA014D9280
:100120005D926D927D92AD014480558066807780AE
:10013000D9014D925D926D927D929D01AF81B885FE
:100140001196B887AF8338966A177B0719F76D0148
:10015000CC0CDD1CCC0CDD1CC80ED91E8601F601B2
:1001600030E020E0D4014D915D916D917D914D0184
:1001700041935193619371932F5F3F4F4F81588506
:100180004217530779F7BA010E945F006F817885A3
:10019000C6010E945F0080E490E0B5010E94DF018B
:1001A000AB01440F551F440F551F5E834D83E6E09E
:1001B000F4E0312C212CC080D180A280B380D70103
:1001C0000D90BC91A02DBA83A983D70112960D90F2
:1001D000BC91A02DBC83AB83D80112964D915C914C
:1001E00013978D909C909401D6010E94F3012B01EE
:1001F0003C019A01D5010E94F301461A570A680A88
:10020000790A452C562C672C772467FC7A94950143
:10021000D4010E94F3014B015C019A01D6010E94B6
:10022000F301860E971EA81EB91E892C9A2CAB2CA2
:10023000BB24A7FCBA9489819A81840D951DD701AE
:1002400011969C938E938B819C81880D991D13969A
:100250009C938E93129789819A8184199509D8016C
:1002600011969C938E938B819C8188199909139682
:100270009C938E931297BFEF2B1A3B0A4D815E81A0
:10028000E40FF51F54E0E50EF11C0C5F1F4F8F814A
:1002900098852816390609F08ECF28960FB6F8945F
:1002A000DEBF0FBECDBFDF91CF911F910F91FF90A9
:1002B000EF90DF90CF90BF90AF909F908F907F9006
:1002C0006F905F904F903F902F900895CF93DF9362
:1002D000CDB7DEB7DA950FB6F894DEBF0FBECDBF4F
:1002E0008FEF8AB90E9453008E010F5F1F4F80E08D
:1002F00091E0F8019C01119221503040E1F7BB24BC
:10030000BA9480E0E82E81E0F82EBBB86801D801ED
:1003100090E080E0F70120813181F901E80FF91FB9
:1003200040815181628173814D935D936D937D9383
:1003300004968115F1E09F0769F760E470E0C80159
:100340000E945F0020E0412C512C320150E040E03F
:10035000F60180819181092E000CAA0BBB0BB7FF1F
:1003600007C0B095A095909581959F4FAF4FBF4F17
:10037000481659066A067B061CF4242F2C013D0101
:100380004F5F5F4FF4E0CF0ED11C4032510501F7B3
:1003900020952BB92FE33DE083E021503040804091
:1003A000E1F700C0000092E0E90EF11CE6E0EE1675
:1003B000E1E0FE0609F0A9CF0E945300A2CFAA1BDC
:1003C000BB1B51E107C0AA1FBB1FA617B70710F040
:1003D000A61BB70B881F991F5A95A9F78095909572
:1003E000BC01CD0108950E94FB01332312F48A1B46
:1003F0009B0B0C940C02A29FB001B39FC001A39F62
:10040000700D811D1124911DB29F700D811D11244D
:10041000911D08950E94FB01B7FF0895821B930B65
:060420000895F894FFCFDF
:100426000603060206011900000018000000150068
:100436000000100000000900000002000000FCFFA0
:100446000000F4FF0000EEFF0000EAFF0000E7FFF7
:100456000000E7FF0000E9FF0000EDFF0000F2FFEB
:100466000000F9FF000000000000070000000E0079
:10047600000013000000170000001900000019001A
:10048600000016000000120000000C00000004002E
:100496000000FEFF0000F7FF0000F0FF0000EBFF8A
:1004A6000000E8FF0000E7FF0000E8FF0000EBFFA8
:1004B6000000F0FF0000F7FF0000FEFF0000040050
:1004C60000000C00000012000000160000001900D9
:1004D60000001900000017000000130000000E00C5
:1004E60000000700000000000000F9FF0000F2FF16
:1004F6000000EDFF0000E9FF0000E7FF0000E7FF56
:100506000000EAFF0000EEFF0000F4FF0000FCFF21
:1005160000000200000009000000100000001500A5
:100526000000180000001900000002000000E7FFAC
:100536000000F9FF0000170000000C000000EBFFB0
:100546000000F0FF00001200000013000000F2FFA0
:100556000000EAFF00000900000018000000FCFF90
:100566000000E7FF00000000000019000000040082
:100576000000E8FF0000F7FF0000160000000E0074
:100586000000EDFF0000EEFF000010000000150067
:100596000000F4FF0000E9FF00000700000019005A
:1005A6000000FEFF0000E7FF0000FEFF000019004C
:1005B600000007000000E9FF0000F4FF000015003E
:1005C600000010000000EEFF0000EDFF00000E002E
:1005D600000016000000F7FF0000E8FF000004001E
:1005E60000001900000000000000E7FF0000FCFF0B
:1005F60000001800000009000000EAFF0000F2FFFA
:1006060000001300000012000000F0FF0000EBFFE6
:1006160000000C00000017000000F9FF0000E7FFD3
:100626000000020000001900000019000000190077
:10063600000018000000170000001600000015005A
:1006460000001300000012000000100000000E0061
:1006560000000C0000000900000007000000040074
:1006660000000200000000000000FEFF0000FCFF8A
:100676000000F9FF0000F7FF0000F4FF0000F2FFA2
:100686000000F0FF0000EEFF0000EDFF0000EBFFB2
:100696000000EAFF0000E9FF0000E8FF0000E7FFB6
:1006A6000000E7FF0000E7FF0000E7FF0000E7FFAC
:1006B6000000E8FF0000E9FF0000EAFF0000EBFF92
:1006C6000000EDFF0000EEFF0000F0FF0000F2FF6B
:1006D6000000F4FF0000F7FF0000F9FF0000FCFF38
:1006E6000000FEFF00000000000002000000040001
:1006F600000007000000090000000C0000000E00CA
:100706000000100000001200000013000000150099
:100716000000160000001700000018000000190075
:1007260000001900000000010000FE00E7FFFB00CA
:10073600CFFFF400B6FFEC009FFFE10088FFD40076
:1007460072FFC5005EFFB5004BFFA2003BFF8E00A7
:100756002CFF78001FFF610014FF4A000CFF3100D8
:1007660005FF190002FF000000FFE7FF02FFCFFFB1
:1007760005FFB6FF0CFF9FFF14FF88FF1FFF72FFE8
:100786002CFF5EFF3BFF4BFF4BFF3BFF5EFF2CFF4B
:1007960072FF1FFF88FF14FF9FFF0CFFB6FF05FFC8
:1007A600CFFF02FFE7FF00FF000002FF190005FF71
:1007B60031000CFF4A0014FF61001FFF78002CFF78
:1007C6008E003BFFA2004BFFB5005EFFC50072FF27
:1007D600D40088FFE1009FFFEC00B6FFF400CFFFD6
:1007E600FB00E7FFFE00000000011900FE003100DB
:1007F600FB004A00F4006100EC007800E1008E0086
:10080600D400A200C500B500B500C500A200D40002
:100816008E00E1007800EC006100F4004A00FB0065
:060826003100FE00190084
:00000001FF
