:1000000010E0A0E6B0E0E8EFF3E003C0C895319659
:100010000D92A63CB107D1F720E0A6ECB0E001C0FC
:100020001D92A63DB207E1F780E08BB9E9EFF0E061
:100030003197F1F700C000008F5F8F3FB1F708954F
:100040002F923F924F925F926F927F928F929F92E8
:10005000AF92BF92CF92DF92EF92FF920F931F93D6
:10006000CF93DF9300D000D000D0CDB7DEB75B01D7
:100070006230710508F4DFC0769567957C01F6EC77
:100080008F2EF0E09F2EFC01AC0194011E821D8298
:100090004080518062807380DA014D925D926D9252
:1000A0007D92AD014480558066807780D9014D9264
:1000B0005D926D927D929D01AD81BE811196BE8350
:1000C000AD8338966A177B0719F76D01CC0CDD1CE0
:1000D000CC0CDD1CC80ED91E8601F60130E020E0F4
:1000E000D4014D915D916D917D914D01419351935D
:1000F000619371932F5F3F4F4D815E81421753078C
:1001000079F7BA010E9420006D817E81C6010E94AC
:10011000200088E090E0B5010E94E601CB01880F45
:10012000991F880F991F9C838B83E6EAF0E030E0EB
:1001300020E060807180C280D380D7012D903C90F8
:10014000119712964D915C915A834983D80112966A
:100150006D917C9113974D915C91649E4001659ED9
:10016000900C749E900C1124092C000CAA08BB085A
:10017000C69EC001C79E900DD69E900D1124092EDB
:10018000000CAA0BBB0B881A990AAA0ABB0A892C75
:100190009A2CAB2CBB24A7FCBA94C49EC001C59E6C
:1001A000900DD49E900D1124092E000CAA0BBB0BB0
:1001B000669EA001679E500D769E500D1124052E5F
:1001C000000C660B770B840F951FA61FB71F492ED7
:1001D0005A2E6B2E772467FC7A94B101680D791D35
:1001E000D70111967C936E9369817A81640D751D98
:1001F00013967C936E93129728183908D80111969C
:100200003C922E9289819A818419950913969C9328
:100210008E9312972F5F3F4F4B815C81E40FF51F48
:1002200054E0E50EF11C0C5F1F4F8D819E81281755
:10023000390709F07ECF26960FB6F894DEBF0FBEC1
:10024000CDBFDF91CF911F910F91FF90EF90DF9085
:10025000CF90BF90AF909F908F907F906F905F9066
:100260004F903F902F900895CF93DF93CDB7DEB797
:10027000A6970FB6F894DEBF0FBECDBF8FEF8AB939
:100280000E94140086E0E0E6F0E0DE019196019025
:100290000D928A95E1F78E010F5F1F4F80E2F80102
:1002A00011928A95E9F77E01F7E2EF0EF11CBB246B
:1002B000BA946E0121E2C20ED11CBBB8D80190E005
:1002C00080E0F60120813181F901E80FF91F4081BA
:1002D0005181628173814D935D936D937D930496FB
:1002E0008032910571F768E070E0C8010E9420003B
:1002F00029813A81C901032E000CAA0BBB0BB7FF61
:1003000007C0B095A095909581959F4FAF4FBF4F77
:10031000232B19F480E090E0DC014D815E81052EF5
:10032000000C660B770B77FF07C0709560955095B2
:1003300041955F4F6F4F7F4F20E084179507A607C9
:10034000B7071CF4DB01CA0121E049855A85052E57
:10035000000C660B770B77FF07C070956095509582
:1003600041955F4F6F4F7F4F84179507A607B707DB
:100370001CF4DB01CA0122E04D855E85052E000CD0
:10038000660B770B77FF07C0709560955095419588
:100390005F4F6F4F7F4F84179507A607B7070CF481
:1003A00023E020952BB9FFE32DE083E0F1502040BE
:1003B0008040E1F700C0000092E0C90ED11CEC14AF
:1003C000FD0409F07ACF0E94140073CFAA1BBB1B57
:1003D00051E107C0AA1FBB1FA617B70710F0A61B45
:1003E000B70B881F991F5A95A9F780959095682F8C
:0803F000792F8A2F9B2F08953D
:1003F800860066008600000100000000000000FF83
:10040800000000000000000100000000000000FFE4
:1004180000000000000000010000B500000000001E
:1004280000004BFF000000FF00004BFF0000000031
:100438000000B500000000010000B5004BFF0000FF
:1004480000FF4BFF4BFF00FF00004BFFB500000013
:060458000001B500B50033
:00000001FF
